:020000040002F8
:1060000068630020C5630200CD630200CF63020015
:10601000D1630200D3630200D563020000000000D8
:10602000000000000000000000000000D763020034
:10603000D963020000000000DB630200DD630200A0
:10604000A56F0200DF630200A9750200B5710200AE
:10605000F9710200DF630200016C02000D700200A2
:10606000DF63020059750200DF630200DF63020094
:10607000DF630200DF630200DF630200DF63020010
:10608000DF630200FD6F0200DF630200DF630200D6
:10609000DF630200DF63020009720200DF630200B7
:1060A000DF630200DF630200DF630200DF630200E0
:1060B000DF630200DF630200000000000000000058
:1060C000DF630200DF630200DF630200DF630200C0
:1060D000DF630200DF630200DF63020000000000F4
:1060E00000000000000000000000000000000000B0
:1060F00000000000000000000000000000000000A0
:10610000000000000000000000000000000000008F
:10611000000000000000000000000000000000007F
:10612000000000000000000000000000000000006F
:10613000000000000000000000000000000000005F
:10614000000000000000000000000000000000004F
:10615000000000000000000000000000000000003F
:10616000000000000000000000000000000000002F
:10617000000000000000000000000000000000001F
:10618000000000000000000000000000000000000F
:1061900000000000000000000000000000000000FF
:1061A00000000000000000000000000000000000EF
:1061B00000000000000000000000000000000000DF
:1061C00000000000000000000000000000000000CF
:1061D00000000000000000000000000000000000BF
:1061E00000000000000000000000000000000000AF
:1061F000000000000000000000000000000000009F
:10620000DFF810D000F0E0F900480047B1A002002C
:10621000AFF300806863002030B450E8012F93B2E0
:10622000C48923448489A34228BF1B1B0489A34239
:1062300002BFBFF32F8F002007E0C3EA020340E84C
:106240000134002CE9D14FF001000A6030BC7047E6
:1062500050E8012FC2EA024240E801210029F7D1AB
:10626000704730B450E8022F1FFAA2F3C488A3424B
:1062700002BFBFF32F8F00200DE0C489234484891F
:10628000A34228BF1B1BC2EA034340E80234002C90
:10629000E8D14FF001000A6030BC704750E8022F8F
:1062A000C2EA224240E802210029F7D170470346A2
:1062B00053E8022FD988B2EB324F4FF0000017BFDE
:1062C00092B241EA014142EA014104E05A68B2EB6C
:1062D000324F08BF012043E80212002AE8D170477C
:1062E00030B4044654E8000F0D4644E80053002B38
:1062F000F8D1156030BC704730B4044654E8000F44
:1063000040EA010544E80053002BF7D1156030BC8A
:10631000704730B4044654E8000F00EA010544E831
:106320000053002BF7D1156030BC704730B40446E1
:1063300054E8000F80EA010544E80053002BF7D130
:10634000156030BC704730B4044654E8000F00EBD1
:10635000010544E80053002BF7D1156030BC7047AD
:1063600030B4044654E8000FA0EB010544E80053A4
:10637000002BF7D1156030BC704770B404464FF065
:10638000000054E8006F0D68AE4207BF44E80023E8
:10639000012044E800630E60002B1CBF0020F0E7E2
:1063A00070BC704730B4044654E8000F88422CBFDC
:1063B000451A054644E80053002BF5D1156030BC62
:1063C000704700000648804706480047FEE7FEE7A2
:1063D000FEE7FEE7FEE7FEE7FEE7FEE7FEE7FEE795
:1063E0003D720200016202002DE9F05F05460020C7
:1063F00092469B4688460646814640241BE0284636
:1064000041464746224600F02FF853465A46C01AE6
:10641000914110D311461846224600F016F82D1A65
:1064200067EB01084F4622460120002100F00DF8DD
:1064300017EB00094E41201EA4F10104DFDC4846A1
:1064400031462A464346BDE8F09F202A04DB203A25
:1064500000FA02F1002070479140C2F1200320FAB7
:1064600003F3194390407047202A04DB203A21FAB5
:1064700002F00021704721FA02F3D040C2F120025D
:106480009140084319467047004870474CEB0200A2
:1064900040EA01039B0703D009E008C9121F08C0A6
:1064A000042AFAD203E011F8013B00F8013B521E26
:1064B000F9D27047D2B201E000F8012B491EFBD29D
:1064C00070470022F6E710B513460A4604461946FF
:1064D000FFF7F0FF204610BD421C10F8011B0029F9
:1064E000FBD1801A7047034611F8012B00F8012BED
:1064F000002AF9D11846704770B50F4D00B92868C9
:10650000002412E00A4602E09E4203D0521C137897
:10651000002BF9D1DAB2224305D02BB124B10021EE
:1065200000F8011B04E00446401C0678002EE9D167
:106530002860204670BD00008C2D002070B50646F6
:1065400001F0EAF8046805460A220021304600F00E
:1065500002F82C6070BD2DE9F04791460F46804649
:106560000446002614F8015B2DB1FFF78DFF00688B
:10657000405DC007F6D12B2D02D02D2D18D0641E02
:106580004A463946204600F031F827B13968A14221
:1065900001D1C7F8008071054FF002040BD54042CD
:1065A000002803DD01F0B8F80460A007BDE8F0871B
:1065B00046F48066E4E70028F8DA01F0ADF80460FC
:1065C0006FF00040F2E70000064C074D06E0E0687F
:1065D00040F0010394E8070098471034AC42F6D32A
:1065E000FFF712FEDCF20200FCF202002DE9F05F80
:1065F00082460078002715468B460AF10104B94609
:10660000302801D09DB113E014F8010B0127782840
:1066100003D0582801D045B10AE00DB1102D07D1A3
:106620000027102514F8010B02E0082500E00A25D8
:106630000026B0460EE005FB080005FB06F1012729
:1066400001EB10461FFA80F8B6F5803F00D3B9463B
:1066500014F8010B294600F018F80028EBDABBF11A
:10666000000F05D00FB1641E00E05446CBF8004087
:10667000B9F1000F06D001F04FF802210160C81EE9
:10668000BDE8F09F48EA0640FAE73A2800D23038E1
:1066900020F02002412A01D3A2F13700884201D321
:1066A0004FF0FF30704770B58C1810F8015B15F093
:1066B000070301D110F8013B2A1106D110F8012B74
:1066C00003E010F8016B01F8016B5B1EF9D12B0799
:1066D00005D40023521E0DD401F8013BFAE710F84F
:1066E000013BCB1A921C03E013F8015B01F8015B3C
:1066F000521EF9D5A142D8D3002070BD08B5084973
:10670000102001F11803087001200246009005488E
:1067100004F0F0F9BDE80840032005F0DFBA0000FE
:106720005837002088E70200F8B5044600F1200140
:106730001B4D1C4803222A7001700021417081709A
:1067400000F1180301461848009204F0D3F93220F2
:1067500005F0C4FA13481830A0F1AC06827832551F
:10676000A878D0B1214611A000F0B2FF5FF000057B
:10677000C5F10700C1B2305D01F0D2FC01460FA0A7
:1067800000F0A6FF072D05D00DA000F0A1FF6D1CA5
:10679000082DEDDB0BA000F09BFF305DF8BD000085
:1067A000502C00205837002088E7020030782578E8
:1067B0002C20307825782C20000000002564000073
:1067C0002C2000000D0A000008B50849112001F135
:1067D00018030870012002460090054804F08AF969
:1067E000BDE80840032005F079BA000058370020C2
:1067F00088E7020008B50649082001F1180308706F
:10680000012002460090034804F074F908BD00001E
:106810005837002088E7020008B506490A2001F130
:1068200018030870012002460090034804F062F942
:1068300008BD00005837002088E70200F8B50D4673
:1068400004460F4E00F140010E48032232700170E1
:1068500000214170857000F1180301460A4800923A
:1068600004F048F9074894380555B078002805D059
:106870002146BDE8F84005A000F02ABFF8BD0000A1
:10688000502C00205837002088E7020052656769C5
:1068900073746572732030782578206D6F64696633
:1068A0006965642E0D0A000010B50020FFF73CFF5B
:1068B00004460448807818B1214603A000F008FF80
:1068C000204610BD502C0020414453204465766979
:1068D0006365204944203A20307825780D0A00006D
:1068E00070B5322004F0A6F84FF0A0444FF40075C4
:1068F000C4F80C55042004F5A16405F0EFF92560F7
:10690000142005F0EBF9642004F094F8FFF75CFF25
:10691000642004F08FF8F6210120FFF78FFF642038
:1069200004F088F8C2210220FFF788FF642004F0F9
:1069300081F8EC210320FFF781FF642004F07AF84E
:1069400003210420FFF77AFF0A2004F073F8602186
:106950000520FFF773FF0A2004F06CF86021062081
:10696000FFF76CFF0A2004F065F8F1210720FFF71C
:1069700065FF0A2004F05EF8F1210820FFF75EFFB2
:106980000A2004F057F8F1210920FFF757FF0A20E9
:1069900004F050F8F1210A20FFF750FF0A2004F01C
:1069A00049F8F1210B20FFF749FF0A2004F042F8D3
:1069B000F1210C20FFF742FF0A2004F03BF80121EF
:1069C0000D20FFF73BFF0A2004F034F801210E20D0
:1069D000FFF734FF0A2004F02DF802210F20FFF703
:1069E0002DFF0A2004F026F800211020FFF726FFD3
:1069F0000A2004F01FF800211120FFF71FFF0A20D2
:106A000004F018F800211220FFF718FF0A2004F004
:106A100011F800211320FFF711FF0A2004F00AF8F3
:106A20000F211420FFF70AFF0A2004F003F80021C9
:106A30001520FFF703FF0A2003F0FCFF00211620BA
:106A4000FFF7FCFE0A2003F0F5FF00211720FFF7F7
:106A5000F5FE0A2003F0EEFF01490020887070BDAA
:106A6000502C00201FB5164A0023D2E90601526AB5
:106A7000CDE900014FF08050CDE9020206208DF8EB
:106A8000040001208DF80C000C208DF802000D2070
:106A90008DF800000B208DF8010013208DF8030005
:106AA00055208DF805000648064A6946083004F06E
:106AB0000DF808B101F040F903A000F009FE1FBD78
:106AC00080E7020005D802002053504920496E6932
:106AD0007469616C697A65642E2E0D0A00000000ED
:106AE00010B5FFF70BFE012003F0A4FFFFF782FEB5
:106AF000012003F09FFF02490120C87010BD000073
:106B0000502C002010B5FFF787FE012003F092FF04
:106B1000FFF75AFE012003F08DFF02490020C870E4
:106B200010BD0000502C00202DE9F84F0024324FFA
:106B3000DFF8C090254626464FF0010807F1180AF5
:106B40002D4B3E70183301222B492C48CDF8008084
:106B500003F0D0FF1E2005F0C1F89AF80020D9F804
:106B600004306D1C42EA03225046C9F80420032D6C
:106B7000E6DBB146204E0025C346BA4680467C3E41
:106B80005FF000071C4B8AF80090183301221A4965
:106B90001A48CDF800B003F0ADFF1E2005F09EF8B6
:106BA000154998F8000058397F1C085556F82510EB
:106BB000641C40EA012046F82500032FE2DB6D1C2F
:106BC000082DDDDB5FF00003172156F8230001F0EC
:106BD000A7FA002856F8230002D040F07F4001E0D9
:106BE00020F07F4046F823005B1C082BECDBBDE85F
:106BF000F88F0000502C00205837002088E7020052
:106C00002DE9F04700268AB0DFF85091B0464FF4E6
:106C10008075012437460696284604F0F5F938B108
:106C2000D9F80403204203D0284604F0E3F92643B0
:106C30002D1D64007F1CADB2082FEDD34FF4BE7440
:106C4000204604F0E1F948B1204604F0D3F946F0BB
:106C5000004606AA0121002004F0B8F9404D16F0C4
:106C6000FF0F15D00127002437420DD009EB840116
:106C7000D1F81005D1F81015C0F3042055F82420E0
:106C8000C1F3014102B190477F00641C082CEBD393
:106C9000002E5FDA4FF0FF30CDF8108054E0281955
:106CA00010F8507F90F9000027F0C008401C3BD03E
:106CB00007A9404603F04EFD10B34FEA971940462E
:106CC00002F06AFB55F820701FB1B9F1030F03D031
:106CD00006E0B9F1030F27D104A9404603F042FDB5
:106CE0004FF0A04101EB8800D0F8000706A9C0F3DF
:106CF000014A404603F02EFD18B1BAF1020F03D04D
:106D000012E0BAF1030F0FD1B9F1030F08D1BAF1B4
:106D1000020F1DD00221404604F020F9761CF6B285
:106D200017B149464046B847641C042CB7D3002E1F
:106D300010D06A460121002004F048F90699009815
:106D4000884207D006900498002634460790A6E7AC
:106D50000321E0E70AB0BDE8F087000000600040D2
:106D6000E83800200028044800F1040001D005F0B4
:106D700025BC05F007BC0000402C00201FB5074BC8
:106D80000FCB8DE80F0000231A466946044803F034
:106D9000BDFE002801D000F0CFFF1FBD64E7020058
:106DA000402C0020F8B516461C466A46069D00F0A9
:106DB00013F810F0FF020DD00120A040311B401E3F
:106DC000491C8840C3B29DF800001840C8408DF8A7
:106DD0000000287050B2F8BD13460122AFF30080C6
:106DE0007FB5054682B001201E461446034600903A
:106DF00003AA2946074803F0ACFE2346324629463B
:106E0000044803F0A3FE10B1002006B070BD0120BD
:106E1000FBE70000402C0020F8B515461C460E4646
:106E200007466A46FFF7D8FF01209DF80010A840EA
:106E30000CB1084301E021EA0000C2B28DF8002045
:106E40003146384600F024F8F8BD2DE9F8431646DF
:106E50001C460D4680466A46089FFFF7BDFF002886
:106E600013D00120A040321B401E521C904097407E
:106E7000C1B29DF80020F8B208408A4302438DF861
:106E800000202946404600F003F8BDE8F8830000E2
:106E90001CB502238DF80410002100918DF8052007
:106EA000014601AA034803F054FE08B100201CBDAE
:106EB00001201CBD402C00200149087070470000D3
:106EC000883700202DE9F0410A4C15460E4607464A
:106ED0002078631C06223B21FFF782FF34F8010F64
:106EE00040BA3880608840BA3080A08840BA288094
:106EF000BDE8F0818837002038B505480090441E71
:106F0000062320781A467521FFF74CFF607838BDBC
:106F10008937002010B5012000F00CF8002000F0A7
:106F200021F8002000F012F8BDE81040002000F029
:106F300025B8000008B503230090034802226B2106
:106F40000078FFF782FF08BD8837002008B50223CC
:106F50000090034804221C210078FFF776FF08BD4B
:106F60008837002008B502230090034804221B2123
:106F70000078FFF76AFF08BD883700200346034802
:106F800006226B210078FFF747BF000088370020FA
:106F900010B5FFF7B1FF342801D0002010BD01204B
:106FA00010BD000070B54FF48076304603F022FD2E
:106FB000114CB50560B1304603F023FD0120C5F842
:106FC0000803607920B9012060712168002088479A
:106FD0004FF48276304603F00DFD00280AD030468B
:106FE00003F00FFD0220C5F808032168BDE87040DA
:106FF0000120084770BD0000882C0020024902488B
:10700000091F096800680847142D00202DE9FE4378
:107010004FF48278404604F09BFB4C4F00254C4CCB
:10702000012600B3404604F09BFB94F82E0010B1FB
:1070300094F82F10D1B18DF8005061680191218929
:10704000ADF80810E26832B1218B61836260218162
:10705000E56010B102E0257400E03E6021686846FA
:10706000884784F82F5094F82E0060B34FF480774F
:10707000384604F06DFB30B3384604F071FB628B88
:1070800094F82D108A420AD9A2EB010080B26083E5
:107090002289A2EB0000626802EB400005E007D104
:1070A000E06828B184F82F60658304F03FFB04E0BA
:1070B0008A4202D184F82F606583404604F050FB79
:1070C0002248001D06604FF48877384604F040FBE4
:1070D00048B1384604F044FB257402208DF80000C6
:1070E0002168684688474FF48A77384604F030FBB9
:1070F00028B1384604F034FB2574BDE8FE834FF018
:1071000000484FF48C7967691DE000BFB7FA87F03B
:1071100028FA00F109EB80058F43284604F018FB9C
:1071200088B1284604F01CFBA5F58C75E8088DF89D
:10713000040045F38000401C8DF800608DF80500C8
:10714000216868468847002FE0D1D6E700700040EC
:10715000203A002000F02EBA70B50E46144900EB1C
:10716000400001EBC0051446E86A183520B101283B
:107170000FD0022805D113E0284600F04FFAA042B4
:1071800001D2002411E022463146284600F07EFA62
:107190000BE0284600F042FAA042F4D20446F2E79F
:1071A0003146284600F045FA0446204670BD0000EE
:1071B000DC40002038B50E480E4C0025C0F80851C0
:1071C000D0F808110091214606F086FC00280ED167
:1071D000A07FFF2801D003F0E0FE65772572D4E997
:1071E000002101B004F10800BDE83040104738BD6F
:1071F00000300040AC39002002494FF0402006F03A
:1072000013BD0000D839002004F058BC10B5094C5B
:107210004FF0FF312160616007A1FFF76DF9FFF7C3
:107220008DF9206004A10020FFF766F9FFF786F9C9
:10723000606010BD182C00207C000000F0B5B5483F
:107240000023021D0178101D01254FF080540629EE
:107250000BD11678360708D10678C6F30316032E2D
:1072600006D0042E04D0052E02D0062907D00EE049
:10727000B4F82463A84FC6F304263E6002E01678F3
:10728000360704D10678C6F30316032E02D006296A
:1072900004D00FE0A24FA14E7E670EE016783607AD
:1072A00008D10678C6F30316032E06D0042E04D0A8
:1072B000052E02D0062907D00EE0D4F84462994F7B
:1072C000C6F342363E6002E01678360704D10678EF
:1072D000C6F30316032E02D0062906D011E0924E03
:1072E000376827F0807737600EE01678360708D1C8
:1072F0000678C6F30316032E06D0042E04D0052EFE
:1073000002D006290AD011E04FF08046C6F80C31B1
:10731000C6F81031834E361F336002E01678360708
:1073200004D10678C6F30316032E02D0062905D031
:107330000CE07C4F032664373E600AE0167836077F
:1073400004D10678C6F30316032E02D006290DD009
:1073500014E0764F05263E60744E78363560734EE5
:10736000083633603F263F1D3E6002E01678360740
:1073700004D10678C6F30316052E02D0062957D08D
:1073800062E06B4E36686B4F3E60694E361D366864
:107390003F1D3E60664E083636683F1D3E60644EB7
:1073A0000C3636683F1D3E60614E103636683F1D14
:1073B0003E605F4E143636683F1D3E605C4E1836A8
:1073C00036685C4F20373E60594E1C3636683F1D8C
:1073D0003E60574E203636683F1D3E60544E243680
:1073E00036683F1D3E60524E283636683F1D3E606F
:1073F0004F4E2C3636683F1D3E604D4E3036366857
:107400004C4F40373E604A4E343636683F1D3E6032
:10741000474E383636683F1D3E60454E3C3636682E
:107420003F1D3E60424E403636683F1D3E6002E0E2
:107430001678360708D10678C6F30316032E06D051
:10744000042E04D0052E02D0062907D019E0D4F866
:107450005812394A01F04F01116002E01178090712
:107460000FD10078C0F30310032803D0042801D003
:10747000052806D131480168C90702D06FF0010123
:107480000160D4F83001062808D1D4F83401062868
:1074900004D12B48016841F48061016022487438AE
:1074A000016841F470010160BFF34F8FBFF36F8F2C
:1074B0004FF01021D1F80002002803DBD1F80402BC
:1074C000002822DA1F4A15601F480468002CFCD0EF
:1074D0001524C1F800420568002DFCD0C1F8044213
:1074E00001680029FCD0136001680029FCD0BFF3BB
:1074F0004F8F0D48F0380168144A01F4E0611143E0
:107500000160BFF34F8F00BFFDE7124910480860CC
:10751000F0BD0000E00F00F0403501400DF0ADBAC5
:1075200000C007403C050040FCED00E01056004064
:107530000404001020C50040E40E00400004004098
:107540003C17004004E5014000E401400400FA0556
:107550000090D003882D00202DE9F047104E04271D
:1075600000244FF4A0784FF4803900BF08EB840565
:1075700009FA04F0715961B1D6F80413014208D038
:107580002946304604F048FB0648D0E90021284649
:107590009047641CE4B2BC42E8D3BDE8F087000029
:1075A00000900040143A00200148006800470000A5
:1075B000902C002010B5124C02202061606111A0B7
:1075C000A06104F17800E0614FF4007020620020B7
:1075D000A06260620BA1A164E06204F51E71E16427
:1075E0001021A065C4E91410E06509A1E01DFEF7B3
:1075F0007AFF08A12046FEF776FF2020A07110BD7B
:10760000DC4000205465726D696E616C0000000002
:107610005254540053454747455200000269C1681F
:107620008A4203D88068401A104400E0501A401E75
:1076300070472DE9F047C4681746894606464FF063
:1076400000083069A04201D9051B02E0B168201A88
:107650000D1AB0686D1E001BA84200D80546BD4239
:1076600000D33D4670682A4620444946FEF710FF85
:10767000B0687F1B2C44A844A944A04200D1002438
:10768000F460002FDDD14046BDE8F0872DE9F041E0
:1076900004468846D4E90207C51BE16860681646BF
:1076A0000844B54206D94146FEF7F2FEB819E0603B
:1076B000BDE8F0812A464146FEF7EAFE761B08EB5C
:1076C000050132466068FEF7E3FEE660F0E7000081
:1076D0000FB4054B10B503A9044A029800F042F814
:1076E00010BC5DF814FB00008D9B0200242D0020CF
:1076F0000FB4084B10B504A902AA039800F032F8A1
:10770000044602A9002000F058FA204610BC5DF89B
:1077100014FB0000BB7B020000487047902D002046
:1077200002E008C8121F08C1002AFAD1704770474A
:10773000002001E001C1121F002AFBD170470000A8
:107740000121202803DA81400548014003E0402858
:1077500002DA2038814009B10120704700207047CB
:10776000FC06FFBD2DE9FF4F8DB00F4605460026F4
:1077700006E025280BD0DDE90F1290476D1C761C22
:1077800028780028F5D111B03046BDE8F08F0024EC
:10779000A246A1460122E94900E0044315F8013F51
:1077A000203B02FA03F00842F7D128782A2810D0AB
:1077B0006FF02F022878A0F13001092914D80AEBC4
:1077C0008A0102EB410144F0020400EB010A6D1C46
:1077D000F0E701CF5FEA000A03D544F40054CAF190
:1077E000000A44F002046D1C28782E2817D115F8E1
:1077F000010F44F004042A280ED06FF02F022878DD
:10780000A0F1300109290AD809EB890102EB4101F5
:1078100000EB01096D1CF2E757F8049B6D1C2878FA
:107820006C280FD006DC4C2817D068280DD06A28A9
:1078300014D104E0742810D07A280FD10DE044F45C
:1078400000140AE044F4801401E044F44014697820
:10785000814202D104F580146D1C6D1C28786E28BD
:107860001ED00CDC632830D004DC00288BD05828D4
:1078700011D19FE0642867D069280CD164E0732897
:107880002DD004DC6F2872D0702804D194E07528C4
:107890006ED078286DD0DDE90F129047761C4BE151
:1078A000C4F30250022806D0032809D0042801CFCF
:1078B00009D0066040E101CFF117C0E900613BE16A
:1078C00001CF068038E1067036E117F8040B8DF819
:1078D000000000208DF80100EB46012003E057F87E
:1078E00004BB4FF0FF3061074FF0000102D40DE000
:1078F00008F10101884649450FDA8045F8DB1BF89D
:1079000008100029F4D108E008F1010188468142FD
:10791000FADB1BF808100029F6D1DDE90F23AAEBEA
:1079200008008146214600F031F9304400EB08069A
:1079300004E0DDE90F121BF8010B9047B8F10108D4
:10794000F7D221464846F2E00A21C4F302524FF032
:10795000000B0891022A04D001CFC117032A09D0D5
:107960000AE0FF1D27F00707F7E8020108E02CE016
:107970001EE01FE000B2C117042A01D140B2C117B6
:10798000021E71F1000206DA0023D0EB030063EB64
:1079900001012D2202E0220504D52B228DF824209E
:1079A000012203E0E20701D02022F7E7904653E0EE
:1079B0000A210BE0102109E010214FF0000B44F0E8
:1079C00004044FF00809089103E008214FF0000B70
:1079D0000891C4F30252022A04D001CF0021032AE5
:1079E00006D006E0FF1D27F00707F7E8020103E0D5
:1079F00080B2042A00D1C0B24FF0000822072BD574
:107A00002A78702A07D0DDF820C08CF0100C5CEAD0
:107A10000B0C05D00EE040228DF82420012208E056
:107A200050EA010306D030238DF824308DF825204C
:107A300002229046089B83F0080353EA0B030BD104
:107A400050EA010201D1620706D530228DF82420C8
:107A50004FF00108A9F101092A78582A04D038A268
:107A60000B9208AA0A920BE03AA2F9E75B46089A41
:107A7000FEF7BAFC0B9B9B5C0A9A521E0A9213708B
:107A800050EA0102F2D10A98ADEB000000F1200BA0
:107A9000600702D524F4803401E04FF00109D94594
:107AA00002DDA9EB0B0000E0002000EB0B014144DC
:107AB0000890AAEB010AE00306D4DDE90F23214672
:107AC000504600F063F806444FF0000908E009A9A9
:107AD00011F80900DDE90F12904709F10109761C40
:107AE000C145F4DBE0030CD5DDE90F232146504608
:107AF00000F04CF8064404E0DDE90F123020904716
:107B0000761C0899481E08900029F5DC08E00A98C0
:107B10000A990078491C0A91DDE90F129047761CFA
:107B2000BBF10001ABF1010BF1DC21465046DDE970
:107B30000F2300F019F806446D1C21E60928010006
:107B400030313233343536373839616263646566D3
:107B50000000000030313233343536373839414295
:107B600043444546000000002DE9F041044600254D
:107B70001E461746880404D405E039462020B04745
:107B80006D1C641EF9D52846BDE8F0812DE9F04151
:107B9000044600251E469046C80301D5302700E064
:107BA0002027880404D505E041463846B0476D1CBF
:107BB000641EF9D52846BDE8F0810A68531C0B60A5
:107BC0001070704790F82400012801D01F207047E2
:107BD000EE20704710B501220221002001F0C8F903
:107BE00008B1072810D107220221012001F0C0F9B5
:107BF00008B1072808D100210A22084601F0B8F987
:107C000008B1072800D1002010BD022001F0BAB849
:107C100070B50024064D06E06868012110F83400B4
:107C200004F074F8641C28788442F5D3002070BDF9
:107C3000B82C0020F8B516460C4605460A2A01D293
:107C40000720F8BD04F05CF918B904F023F9002806
:107C5000F7D1134F102113487D603C70BE60FEF7D2
:107C600030FC0020C7E904000F4E0DE005EBC40016
:107C70003168009181788DF8011000780B4A6946CF
:107C800004F096F80028DCD1641EE4B2EED2BDE820
:107C9000F84005480021064A001D00F087B80000A2
:107CA000B82C0020703A002040E80200899D0200B4
:107CB0006997020010B572B603F02EFC03F072FA59
:107CC0000028FBD111481249401AC408012000EBDA
:107CD000044010A103F07EFB11480068C00700D0EB
:107CE00000BE022000EB04400EA103F073FBBFF3C3
:107CF0004F8F0B48E43801680E4A01F4E0611143EC
:107D00000160BFF34F8F00BFFDE7000094F3020056
:107D10000CF30200466174616C206572726F720030
:107D2000F0ED00E053797374656D207265736574CE
:107D3000000000000400FA050EB500210091CDE915
:107D400001106A4644F20100FFF7B4FF0EBD10B502
:107D50008268C368934203D001F0ECFE002010BD9E
:107D6000052010BD29B112B1531E134203D00920C2
:107D700070470E2070470160838000218160C160E0
:107D80000846704710B58268C3689A1A83889A4279
:107D900003D801F0D9FE002010BD042010BD000062
:107DA000014801F048BD0000D82C00203AB100681D
:107DB0000129426100D000210161002070470720A5
:107DC0007047000038B511480823582241680091D7
:107DD0000F49006802F0E5FB002815D10D4A6946FD
:107DE0000D4801F02DFD04000ED101210A4801F0DB
:107DF0009EFD0123094A1946074801F0F4FC064993
:107E0000012008390870204638BD000048E802000B
:107E1000903A00203DD10200D82C0020FFFF7F00C7
:107E200070B50446007F0D4608B1002070BDA26108
:107E300001F042FF401941F10001C4E9020120694B
:107E400000B125612146BDE87040002005F01CBE50
:107E5000014600200877012005F016BE70B50A4ED5
:107E600001460A48B578FFF772FF04464DB100207D
:107E7000B070711C0122C81D02F0A6FE08B1FFF708
:107E80005BFF204670BD0000F42C0020E83A002083
:107E9000F0B5244E89B01F460D00044672603FD0F5
:107EA000A888296882B22048FFF75CFF002835D1F6
:107EB000A889A96882B21C481030FFF753FF002838
:107EC0002CD1202219496846FEF7E2FA6069069033
:107ED000207C00B101208DF814008DF81C70607CAE
:107EE00000B10E208DF81500E0680290A0680390A4
:107EF00020680190606800900A480D4A6946083081
:107F000002F02EFE002809D1B0702068401C05D078
:107F100004490122491CC81D02F056FE09B0F0BDFB
:107F20000720FBE7F42C0020E83A00205CE8020080
:107F300039E1020010B501461048FFF723FF0400A5
:107F400019D10F480F4A0178515C19B1001D04F096
:107F500059FE02E00C3004F02FFD60B908490748D3
:107F60000839FFF7F4FE30B9054901220839044801
:107F700002F03AFE0446204610BD0000F83A002008
:107F8000FC2C00207C2C002030B5EFF3108172B661
:107F90000D4A9468012324B10370002900D162B610
:107FA00030BD93604FF0E023D3F88051074C25405B
:107FB0001560C3F88041D3F8844154605A17C3F860
:107FC000842100220270E8E7083B0020FC06FFBD88
:107FD0000B498A68002A11D000280FD1EFF31080D6
:107FE00072B60B684FF0E022C2F800314B68C2F85D
:107FF000043100228A60002800D162B67047000078
:10800000083B00202DE9F041064608680C46411C5B
:108010004FF0A0474FF0010506D005FA00F1C7F870
:108020000815206802F07CFF6068411C02D0002126
:1080300002F05CFF3168A069C1F82405607D227DF3
:1080400031681043C1F86C05D4E900123068C0F8FB
:108050001425C0F80C15207D012815D1A068411CFD
:1080600002D0002102F042FFE068411C05D08540AB
:10807000C7F80855E06802F053FFD4E902123068EF
:10808000C0F80825C0F81015BDE8F0812DE9F041D1
:10809000064608680C46411C4FF0A0474FF001050A
:1080A00006D005FA00F1C7F80815206802F042FF73
:1080B0006068411C02D0002102F021FF3168A069F4
:1080C000C1F82405607D217D32680843C2F86C0543
:1080D000D4E900123068C0F80C15C0F81425207DD2
:1080E000012815D1A068411C02D0002102F007FF31
:1080F000E068411C05D08540C7F80855E06802F0EB
:1081000019FFD4E902123068C0F80825C0F810152C
:10811000BDE8F081400C01D000207047012070477D
:1081200001228A40104000D00120704770B5150030
:10813000044609D00020286034B1206820B1A0791D
:10814000800703D0072070BD0E2070BD084600F0E8
:108150001FFBC0B2142804D02179814203D8042027
:1081600070BD052070BDE288216800FB0210286008
:10817000002070BD2DE9FC470025178806461580B4
:1081800090F82D001446894630B13A4621464846BB
:1081900000F012FB051E09D1B0784FF00C0A18B39D
:1081A0002088C846001DB84202D95046BDE8FC8769
:1081B000684679DF0028F9D12088032108F80010EB
:1081C00020881921401C80B2208008F800102088E7
:1081D000401C80B2208000EB0801BDF8000006F0D2
:1081E0004CF9218808442080F0780222C8B1218807
:1081F00096F9033001F1030C4846BC45D5D84254EA
:1082000021884FF0010C491C89B2218000F801C07F
:108210002188491C89B2218009F801302088401C3E
:1082200020807068B8B1218890F9003001F1030C0A
:108230004846BC45B9D8425421880A22491C89B213
:10824000218042542188491C89B2218009F80130DB
:108250002088401C2080308950B1CDE900474B4632
:108260000622022106F1080006F0C8F9051E9DD17C
:10827000308A50B1CDE900474B460722032106F171
:10828000100006F0BBF9051E90D1308B50B1CDE93E
:1082900000474B461522142106F1180006F0AEF9EE
:1082A000051E83D1306A30B13B462246494601F073
:1082B00090F9051EDBD1706A30B13B462246494633
:1082C00002F092F8051ED2D196F82C0038B13B4648
:1082D00022464946304605F0E7F9051EC7D13078F9
:1082E00038B13B4622464946304602F007F9051EA2
:1082F000BDD128465AE718B504460020ADF8000065
:1083000013466A46204600F006F8002802D0BDF861
:108310000000204418BD70B5C8B1C2B10024158852
:1083200003E0065D641C3444A4B2A54203D80619D8
:1083300076789E4201D08C42F3D38C4207D2005D06
:10834000A31C401E9BB280B21C188C4201D9002095
:1083500070BD138070BD80F8301070472DE9F0417A
:108360000D00044606D02CB195F87A0000260128AD
:1083700003D006E00E20BDE8F08195F898000128B2
:1083800029D0D5F8A000042825D0D5F89C000428D1
:1083900021D04FF00108A6702C2205F17801201D94
:1083A000FEF776F884F83060D5F8A4006063D5F85D
:1083B000A800A0634FF6FF70A4F8240404F58260BF
:1083C000C4F82004C4F82664A4F82A6484F82C6451
:1083D000207810B104E00720CDE7FF2084F8540096
:1083E00004F155072046C4F81074FFF7EBFBA4F81E
:1083F000140404F2144239462846FFF7BBFE002855
:10840000B9D104F23120C4F818042046FFF7DAFB92
:10841000A4F81C0404F21C4205F13C00D4F8181422
:10842000FFF7A8FE0028A6D184F85180208BA4F87D
:10843000480084F83C80266484F85060606900211C
:108440006064454604F13C02781E72DF002892D138
:10845000257090E710B50288102A1BD0112A20D071
:10846000262A1DD1007A0C46012801D0022817D1F6
:10847000A0780521401CB0FBF1F201FB120120465F
:1084800000F03AF800280BD0A16B002908D0BDE815
:1084900010400847C27B012A02D18088A1F8240439
:1084A00010BD0C46002184F82E148088B4F82414E2
:1084B0008842F5D120790028F2D10121DFE710B5FB
:1084C000044690F8540074DF012084F82E04002044
:1084D00084F8300484F850000621204601F042FB65
:1084E000002808D1A178204600F006F810B1A16B51
:1084F00001B18847002010BD2DE9F05F04460078E7
:108500000F4698B1A7700025C4F82654A4F82A5441
:1085100084F82C54A079012608B1012F09D0E07904
:1085200080B1012F05D0022F03D00BE00820BDE859
:10853000F09F616B21B184F82D640820884701E029
:1085400084F82D5404F2274100200A5C0AB1304619
:1085500003E0401C0628F8D300204FF002084FF03B
:10856000030B012F06D0022F0CD0032F0FD0042FA6
:1085700015D110E0A17929B194F8241011B908B1EE
:1085800030460DE0E17911B108B1404608E0207AAB
:1085900008B1584604E0607A08B1042000E028469B
:1085A000A070616B41B1032801D0042804D1607927
:1085B00010B194F82E0498B184F82F5404F13C00C3
:1085C00018210746FDF77DFF84F83C6004F12C007C
:1085D00004F01CFD58B194F82C0084F8510008E018
:1085E00084F8305484F82F6407208847E6E784F83D
:1085F000516094F8240058B104F1280004F006FDFD
:1086000020B194F8280084F8520001E084F8526008
:1086100084F85050A27804F2264104F582694FF0A4
:10862000060A052A64D2DFE802F07C030F2242002A
:1086300084F83160C4F82054C4E9101584F83C80F3
:108640008020A4F8480055E084F8318094F8242074
:10865000384612B10722027001E080F800B0228A89
:108660008281C4F820544160E168B96042E06069E9
:10867000B860208BB88194F824003D46002820463D
:1086800002D084F83CA001E084F83C6005F088FF4B
:1086900050B185F814800421204601F063FA38BBFC
:1086A000052184F8311021E084F831B01EE0E06942
:1086B000B860208CB88194F824003D4600282046FC
:1086C00002D084F83CA001E084F83C6005F068FF2B
:1086D00048B185F814800421204601F043FA38B9E6
:1086E00084F831A002E0042084F83100C4F820941A
:1086F000A07878B13A4604F15400D4F8201472DF1F
:1087000000287FF414AF94F8301094F8540073DF0D
:108710000028F6D1616B11B194F831008847002030
:1087200005E784F83150F5E770B5040012D0014632
:108730001C221448FDF7ACFE1248134D056020685A
:1087400050B17ADF002806D12068016829604068AE
:10875000686005E00E2070BD0B487BDF0028FAD171
:1087600008484FF6FF711438084A20F8041B0549E1
:10877000343901600021FFF719FB0028EBD00320FA
:1087800070BD00003C380020742C002039E5020048
:1087900010B5044600F006F808B1204610BD1420BC
:1087A00010BD0000142801D3002070470146014885
:1087B00001F041BF5C3800207CB5054608880C46B6
:1087C0000930904201D90C207CBD68466DDF00283D
:1087D000FAD121880820685420881B21401C80B2CF
:1087E000208029542088401C80B220802844DDF855
:1087F00001100160BDF8051081802088801D80B2C5
:1088000020809DF80010490800D0012129542088BB
:10881000401C208000207CBD38B5224D04460188D4
:10882000688921292AD00FDC102917D011291ED0E0
:10883000132922D100231A4685217FDF00281CD06E
:10884000BDE83840FFF778BA3B2926D052291FD01F
:10885000562912D1A088132176DFEFE712A0FEF788
:1088600037FFA1886981134802F04CF8E6E712A0AF
:10887000FEF72EFF4FF6FF70688138BD0020009094
:10888000A08869468FDF0028F7D0FFF755FA38BD7A
:1088900000231A461946B1DFD0E7A088132176DFFE
:1088A000CCE70000E82B0020436F6E6E65637465B3
:1088B000640D0A009C300020446973636F6E6E651E
:1088C000637465640D0A000010B51A4C0188606875
:1088D00010290ED011292BD1401E606028D1FFF73E
:1088E00079F9002824D02168002921D0BDE8104062
:1088F0000847D0B900210122084600F039FB08B131
:1089000007280FD107220221012000F031FB08B116
:10891000072807D104220221002000F029FB20B102
:10892000072802D0216801B188476068401C606058
:1089300010BD00006C2C00202DE9F04701883B4E53
:1089400040F2F3194FF6FF7510291BD011293ED0C4
:10895000122954D0502946D1C188F289841D9142F0
:1089600041D1618902293ED18688304601F030FA32
:10897000050038D004F10C0000F0BFF9A8B3294677
:1089800030464EE0C17B8788044601292BD1A8469A
:10899000284601F01DFA050017D02F80002028720C
:1089A000234843464A460168C5F80A104068C5F89E
:1089B0000E0004F1100105F10A0001F0D4FA68720A
:1089C000F08900280FD129462AE0042013E080888E
:1089D00001F0FEF9040006D06068FFF739FA08B12B
:1089E00004F032FE2580BDE8F087FFE76868FFF7F6
:1089F0002FFA0028F7D0BDE8F04704F025BE87889D
:108A00000646384601F0E4F90400ECD02B464A460D
:108A100006F1080104F10A0001F0A5FA607221468E
:108A20003846BDE8F04700F01BBE00003C3800208F
:108A3000742C00202DE9F04F0446868801884248B6
:108A400097B0834610290CD0112950D01030192925
:108A50006AD01A2974D1217A0C09042C4DD3012231
:108A60004CE0394D083DA868C0430B9069680BA8DD
:108A700001F002FE0B990CA800F08CFD2C220CA931
:108A80006846FDF705FD0027E946A84610E000BF4F
:108A900009EB47005FF00005B0F804A008EB850083
:108AA0005146001D01F0BCFD6D1C1E2DF6D37F1C30
:108AB0000098B842ECD8142E05D317B00420BDE8B6
:108AC000F04FFFF739B93146584601F0BFFD314646
:108AD00008F1040001F0BAFDE07B012830D017B0A6
:108AE0003146BDE8F04F1848001D01F0AFBD17B08A
:108AF0003146BDE8F04F01F093BD0022314601F050
:108B00002CF8032C01D3012200E000220E4831464C
:108B10000C3001F022F8022C01D3012200E00022E7
:108B200009483146083006E0217A002908D1617AE7
:108B3000C1F3C002314617B0BDE8F04F01F00DB8E7
:108B400017B0BDE8F08F000060380020F0B585B0A8
:108B500016460F4604001D4614D004AA1946606943
:108B6000FFF7E4FA00280BD1A5F57F40FF380BD0C2
:108B7000049848B1007848B13088F42808D9072013
:108B800005B0F0BD0E20FBE70520F9E70820F7E768
:108B900000200090019002900390A088ADF80000A2
:108BA00001208DF80200CDE9026769462846AEDF54
:108BB000E6E7000070B5334D04008EB02DCD08AE51
:108BC00086E82D005BD0E9B30868A061214608A8BB
:108BD00062DF002851D1207801258DF83200ADF8F0
:108BE0003050A21C0CA92846A8DF002845D120211E
:108BF0006846FDF766FC0220ADF8000020788DF88D
:108C000002008DF80C509DF80D00F426ADF80460BC
:108C100040F00C008DF81150ADF806508DF80D00A5
:108C20008DF81250608804F10C02694600F0BCFB1C
:108C3000002822D120216846FDF743FC0320ADF82F
:108C4000000000E01BE020788DF802008DF80C5049
:108C50009DF80D008DF81150ADF8046040F0100043
:108C60008DF81250ADF806508DF80D008DF81350A8
:108C70006088221D694600F097FB0EB070BD0E2083
:108C8000FBE70000F4E7020030B587B00446002996
:108C900025D0002C23D008462188102921D0502926
:108CA00025D057291BD10546A18840696A46FFF7A0
:108CB0003DFA002813D10098007800280FD0182121
:108CC00001A8FDF7FEFB01208DF804000295A088A5
:108CD000ADF80C0000980490A96901A8884707B076
:108CE00030BD07B02146BDE8304004F06DB807B094
:108CF0002146BDE8304004F047B9007800F001009B
:108D0000704700000149085C70470000ACE70200B2
:108D10000649095C4FF0A040D0F81005C84010F09B
:108D2000010000D0012080F001007047ACE7020094
:108D30002DE9FC410646C0074FF000050ED0104F4C
:108D400000240122385D009500231146019502F0B0
:108D500061F8641C042CF4D300F046F8B0070DD57C
:108D6000074E0024361D0022305D03230095114676
:108D7000019502F04FF8641C042CF4D3BDE8FC818B
:108D8000A8E7020007490B5C4FF0A041D1F8042589
:108D90000120984020EA0203C1F808351040C1F8CC
:108DA0000C057047A8E702000249085C012102F0A7
:108DB00002B90000A8E702000249085C002102F0A5
:108DC000FAB80000A8E702000649095C4FF0A0408D
:108DD000D0F80405C84010F0010000D0012080F058
:108DE00001007047A8E7020010B500242046FFF7F5
:108DF000DBFF641C042CF9D310BD10B50024204601
:108E0000FFF7DAFF641C042CF9D310BD10B502463D
:108E1000064B4FF0FF3000215C5C944201D10846C4
:108E200010BD491C0429F7D310BD0000ACE70200B7
:108E300070B50C4E0C004FF0000530600BD00120D7
:108E400000F06AF808B1022004E0002000F064F8A5
:108E500000B10B202070706810B9FEF7BBFE05460C
:108E6000284670BD6C2C002010B5002000F0DCF905
:108E700008B1062806D1012000F0D6F908B106286D
:108E800000D1002010BD00002DE9F0470D468146BD
:108E9000FFF7BCFF0446042836D2DFF874801B4875
:108EA0001C4EA8F10C0725B3012D0ED0022D2BD19D
:108EB00004EB440030444578002D25D0B9680029E2
:108EC00022D02846BDE8F047084704EB4401755C12
:108ED0000E44717849B10E4A4FF48041093A8068D6
:108EE000FEF79EFF08B987F80390B17808F80410E0
:108EF000E2E78068FEF7ACFF04EB4401314418F868
:108F000004008D78A842D7D0BDE8F087B0E7020012
:108F1000682C0020D8370020042801D2FFF7F8BEC3
:108F2000002070470146104810B54089042907D039
:108F300007290ED00A2915D1BDE8104004F010BC55
:108F4000132176DF0CE000280CD0BDE81040FEF7BE
:108F5000F3BEA0F57F41FF3904D10448FFF7AFFA13
:108F60000828F0D110BD0000E82B0020A830002018
:108F700070B50023042810D20D4D00EB4004012AE7
:108F800002D101290CD00022094E00EB40003044F0
:108F900061B1012906D0022906D00723184670BD09
:108FA0000E30C2B22A55F9E74270F7E78270F5E752
:108FB000D8370020044A014600201279D20702D097
:108FC000084600F04DB870475C2C002070B506468E
:108FD0001E480024C0E90161B00720D50025012208
:108FE00011462846FFF7C4FF6D1C0446042D02D22B
:108FF000002CF4D013E094B940F233320421144829
:10900000FEF718FE04000AD1FEF702FE040006D1A6
:109010000F48104A0021001FFEF7C8FE0446F00763
:1090200012D00120FFF784FE74B909480A4A0021D2
:109030000C38FEF7BBFE040006D10548074A0121A3
:109040000838FEF7B3FE0446204670BD5C2C0020B5
:10905000BCE702002D930200E99F02000B7C020096
:109060002DE9F05F6E4C054600266078B34618B1D6
:1090700084F801B000F0A0FF6A4F4FF47A694FF412
:10908000C87A4FF00108182D69D2DFE805F00C13FB
:1090900013384754696E727B727BC58484848484E0
:1090A000B3B6B9BCC5C500F087FF3868FEF7D0FE7F
:1090B00006465CE00020FFF787FE00284FF0000026
:1090C00008D0FFF771FE022D02D14FF4E16008E0F5
:1090D000484606E0FFF770FE022D01D1C82000E0EF
:1090E0005046410CC0034FF47A72801841F10001E0
:1090F000257052000023FDF777F901462AE0002091
:10910000FFF762FE00284FF0000004D0FFF74CFE8E
:109110004FF44870E5E7FFF74FFEDFE70020FFF769
:1091200053FE00284FF0000002D0FFF73DFECFE7CE
:10913000FFF742FED4E70020FFF746FE00284FF07D
:10914000000002D0FFF730FE01E0FFF735FE25708A
:1091500040F6CD4100223868FEF762FE064646E042
:109160000020FFF70FFE257008E0002051E0257079
:109170003DE084F801800120FFF704FE002240F268
:109180006661E8E784F801800120FFF7FBFD00221B
:109190004FF40051DFE77868FEF75AFE0646D5F136
:1091A000110000D02EB10220FFF7FEFD84F802B0BE
:1091B0001DE0012816D980B2C8214843C117C90350
:1091C00041EA5041C0034FF47A72801841F1000126
:1091D00052000023FDF708F9014600227868FEF7E7
:1091E0001FFE06460220FFF7E7FD84F802803046A6
:1091F000BDE8F09F00F0E0FEB9E700F0DDFEB4E767
:1092000000F0DAFE04E000F0D7FE0020FFF7D4FD06
:109210000120FFF7D1FDAAE7FFF7EFFDA7E7000068
:109220005C2C0020B0E70200012105F04EBA0000DE
:109230002DE9F8430546861C00208DF80000904675
:109240000F464FF001096846FEF79EFE1B4C206852
:109250003860D4E90001401AA16804F21C47081ADA
:109260000EE00121384601F001FA00F0D3FE01467C
:10927000384601F0FBF9D4E90001401AA168081A48
:10928000401C8642EDD8B8F1000F03D0052065F3ED
:10929000891002E0062065F39F50A2682168114002
:1092A00004EB8101C8602068304420609DF8000014
:1092B000FEF78EFE4846BDE8F8830000B83C00206B
:1092C00070B50D4604460A2902D10D21FFF7F8FFBB
:1092D000A0682268411CA1601554D4E901018142B3
:1092E00004D32046BDE8704001F09BBC70BD000077
:1092F000034803C8814201D1012070470020704714
:10930000B83C0020034630B5074800210478426885
:1093100006E000BF02EBC10005789D4203D0491C66
:10932000A142F7DB002030BDB82C002000780221DC
:10933000FFF7AABD05494FF0FF32082841F8202069
:1093400002D3084480F8482070470000E838002025
:10935000F0B54FF0FF3512B10023082601E00823D5
:109360000C260C4C05E000BF54F823707F1C04D081
:109370005B1CB342F8D32846F0BD26185DB286F8D0
:10938000305044F82310002AF5D1E11881F8480044
:10939000F1E70000E83800200249084490F9300065
:1093A00070470000E83800202DE9F04381468878B6
:1093B00091B090460C4600B901208DF83E002088FF
:1093C000ADF83C0000250095607C694604F0B0F9DA
:1093D0006E46A07C711C04F0ABF9E07B00289DF880
:1093E000020002D040F0080001E020F008008DF8F3
:1093F0000200217C11B140F0100001E020F01000CB
:109400008DF80200217B11B140F0010001E020F055
:1094100001008DF80200217D09B1022100E0012147
:1094200061F342008DF802001C2102A8FDF749F803
:10943000607BC10601D4800617D50E950EAFE07C87
:10944000791C04F075F99DF83800079720F00F009B
:10945000401C20F0F00010308DF838009DF83A00E4
:1094600020F00600801C8DF83A00607B8DF8080023
:10947000A07B8DF80900142109A8FDF722F80FA898
:10948000CDE90906A088ADF83000A06820B1E088D9
:10949000ADF82C00A0680D90A06998B301950088E4
:1094A000ADF81000A06901AD01A94088ADF8120027
:1094B000A069406806950390A069007B04F038F924
:1094C000A069691C407B04F033F9A069807A002808
:1094D0009DF8060002D040F0080001E020F00800EE
:1094E0008DF80600A169C97A11B140F0100001E0C1
:1094F00020F010008DF80600A169097A19B140F03A
:10950000010002E00DE020F001008DF80600A169E5
:10951000897B09B1022100E0012161F342008DF84D
:109520000600E06900B10590434609AA02A9484631
:10953000AADF11B0BDE8F08370B5084C050009D072
:1095400010342168002907D008682060496828463F
:109550008847F6E70834F4E770BD0000D4380020EF
:10956000054A012120B1012805D19170FFF7E4BF20
:1095700051700020FAE77047D438002010B5D0E9C8
:109580000234D1E90220D11AA04101D3012010BD3B
:10959000002010BD73B58CB00646002000900D98D9
:1095A00080B100246D4621460DA801F044F830B189
:1095B000009805EB400084800098401C0090641CDB
:1095C000142CF0D32C2269463046FCF761FF0EB014
:1095D00070BD2DE9F04117880646B81D14460D46AA
:1095E000984202D90C20BDE8F08131880722062973
:1095F0000AD34FF4486C4FF6FF73614501D9994285
:1096000002D17088062801D21046ECE7604501D9E6
:109610009842F9D1994203D0984201D08142F3D8BF
:109620000520E85520881221401C80B22080295452
:109630002088401C80B220804119308804F01DFF32
:109640002188084480B220804119708804F015FFF9
:109650002188084420800020C5E7FEF76DBB00008C
:1096600038B54A7A0F4B62B100220A725969002953
:1096700006D001228DF80020ADF802006846884728
:1096800038BD0A7A62B19B684C680246194620468A
:10969000FEF7C6FB0028F3D0BDE8384003F0D4BF86
:1096A0005B68F1E73C38002070B588B006460020C2
:1096B00005900690ADF81410ADF8161001900290C8
:1096C00001AA05A9304690DF050021D002F09AFAE0
:1096D0000346114811493246401AC108012000EBE7
:1096E000014004460E4901F080FEBDF8042012B985
:1096F000BDF8060028B1BDF80630204609A101F0EA
:1097000074FEBDF808201AB12046164901F066FE25
:1097100008B0284670BD00000CF302000CF30200F4
:1097200050EB02005468652072657175657374654D
:10973000642054582F5258207061636B6574206CFC
:10974000656E67746820697320746F6F206C6F6E2C
:10975000672062792025752F2575206F63746574E5
:10976000732E00009CEB020070B500240F4D10E03A
:10977000686800EBC406307802F082FB717801293A
:1097800001D0012100E000214140307800F058F97B
:10979000641C28788442EBDBD5E90401084303D03C
:1097A000BDE8704004F08CB970BD0000B82C0020FA
:1097B00010B50021024800F06AFF80F3100010BDD0
:1097C000D44000204FF480328A400168C1F8482319
:1097D0000068C0F8082370474FF4A07202EB8101C3
:1097E00089B200F09DB92DE9F04105460E464FF4CF
:1097F000A07000EB860081B228684FF48034B4403A
:10980000984622F07F47C0F808432868C0F84843CC
:10981000286801F085FF286800EB8600C0F84075D5
:109820002868C0F84443B8F1000F02D02868C0F897
:109830000443BDE8F0810068D0F8040570470000DB
:1098400070B54379224C44F823204279241D04EB5F
:10985000C202204B1579204A9A1AD3082DB1082448
:10986000022000EB03401DA12EE002680D88C2F823
:10987000085590F904208978002A4FEA411106DA48
:1098800002F00F0202F1E02282F8141D03E002F15F
:10989000E02282F8001490F90410012201F01F0563
:1098A00002FA05F54909890001F1E021C1F80051EA
:1098B000417904EBC1010A71417944F83100032078
:1098C000002400EB03400EA101F084FD204670BD92
:1098D000102D00207CF302000CF3020052544320B0
:1098E000696E7374616E636520616C726561647921
:1098F00020696E697469616C697A65642E00000084
:109900005254433A20696E697469616C697A65647E
:109910002E00000090F90400012100F01F02914088
:109920004009800000F1E020C0F8001270470A46AC
:10993000022100F07BB84FF4827100F0F1B80068AA
:1099400001210160704700680121416070472DE9E5
:10995000F05F07460C464FF4A07000EB84001FFA3E
:1099600080FA38684FF48036A6409B4622F07F4547
:10997000C0F848633868C0F808633868D0F80485D0
:1099800000EB8402D2F84095C2F840855146386811
:1099900001F0C6FEA9EB080020F07F40012806D1A7
:1099A000102002F0ABF95146386801F0B9FE386872
:1099B000D0F80485C0F84463A5EB080121F07F418D
:1099C0003868012900EB840010D0C0F84055386891
:1099D000D0F804156FF07F4C6A1A521E22F07F42B5
:1099E000ACEB0B03934217D362B118E06D1CC0F8C7
:1099F0004055102002F082F93868D0F8040540453F
:109A00000AD10CE000EB84006D1CC0F840553868AA
:109A1000D0F80405884202D00D20BDE8F09F012255
:109A20003146384600F002F80020F6E70368C3F834
:109A30004413002A02D00068C0F8041370470000E5
:109A40002DE9F84F0E463449804601EB5001C0071E
:109A5000097801D00F0901E001F00F074FF000096C
:109A6000424601204946FCF7F0FCDFF8B0A004466E
:109A70000D46052F4ED2DFE807F003161B282C00F9
:109A8000002E47D00121404603F028FF8DF80090BA
:109A90006846FEF779FA5046D0E904120C431543A4
:109AA000CAE9044532E00EB1022114E0002112E0BF
:109AB0004EB10321404603F011FF4046BDE8F84F88
:109AC000012104F08BBD012105E0002E22D10421EB
:109AD00001E02EB103214046BDE8F84F03F0FEBE81
:109AE0000021404603F0FAFE0021404604F076FDD6
:109AF0008DF800906846FEF747FA5046E243D0E9F9
:109B000004341A4024EA0501CAE904219DF8000042
:109B1000FEF75EFABDE8F88F703A0020B82C0020FE
:109B200010B5006842581AB101F0FAFD012010BDCD
:109B3000002010BD826883881A4003689A5C0A700E
:109B40008168491C81607047C26883881A40036835
:109B50009954C168491CC16070470AB100F076BDD4
:109B600000F05EBD70B50D460446B0F81414D0F890
:109B700010040122FEF7BFFB00B1057004F13C02A6
:109B800004F5826104F1540072DF70BD10B5044623
:109B9000C0B2FEF7CFF9204610BD000000B58BB073
:109BA0009DF8280020F00F00401C20F0F00010303D
:109BB0008DF828004FF08050D0F8A4001549B0FB74
:109BC000F1F201FB120314A215A16846FDF790FD06
:109BD0006846FCF781FC82B269460AA87CDF08B1BE
:109BE000FEF7AAF80020089009901021ADF8240093
:109BF000ADF820104FF4C8702021ADF82600ADF864
:109C0000221008A87ADF002801D0FEF795F80BB0E3
:109C100000BD0000A08601004E4555524F5458002B
:109C200025735F2530356400000000000C484A8829
:109C300043899A4213D10A88A2F52063773B0ED15B
:109C40008988C91E8AB28281064807491346401A8C
:109C5000C008032101EB004004A101F0C6BB70471E
:109C6000E82B002094F302000CF3020044617461BD
:109C7000206C656E2069732073657420746F2030CA
:109C8000782558282564290010B50949094800F0AD
:109C90007FFD08B1FEF750F8F721064800F06CFD93
:109CA000002803D0BDE81040FEF746B810BD000004
:109CB0002D9C02008830002010B50B48FFF7BBFD3B
:109CC000094A083AD2E90434C018D2E9063244F10C
:109CD0000001C31A71EB020204D24FF080728018A7
:109CE00041F1000110BD0000D82C002008B50E2065
:109CF00001F00EF90F2001F00BF9102001F008F926
:109D00000F2001F043F90E2001F040F9102001F07E
:109D100036F9172001F0FCF8162001F0F9F81420AC
:109D200001F0F6F8092001F0F3F8082001F0F0F84E
:109D3000082001F02BF9062001F0EAF8062001F0D6
:109D400025F902F0DDF820B902F0A4F808B1FDF71A
:109D5000F3FF0B4901200B4A096800919DF802109E
:109D600060F341018DF802106946022002F020F8EC
:109D700008B1FDF7E1FF0121022001F0C7FF08BD96
:109D800010E70200C59D020010B5C0B2FFF7BAFA95
:109D90000446007802F074F801466078012801D08A
:109DA000012000E0002090EA010F08D00449D1E929
:109DB0000401084303D1BDE8104003F081BE10BD8B
:109DC000B82C00200149012088707047E82B002042
:109DD0000146034802888A4200D0002070470000F4
:109DE000283800202DE9FC5F0E008346DDE90C4792
:109DF000C6F1000098469246814600D408460125E7
:109E000003E000BF90FBFAF06D1C5045FADAA8455C
:109E100000D9454624B1002E01DB780700D5641E29
:109E2000B80702D5B8F1000F0AD0F80708D13CB145
:109E3000A54205D220215846641EFFF741FAF6E7F5
:109E4000002E02DA4E462D2102E0780703D52B21A1
:109E50005846FFF735FA07F0030002280BD1B8F196
:109E6000000F08D13CB1A54205D230215846641EEE
:109E7000FFF726FAF6E7CDE900474346524631465A
:109E8000584604F0FFFABDE8FC9F000070B50D468F
:109E9000044600684FF4887101F0E5FE4FF49071BC
:109EA000206801F0E0FE4FF49271206801F0DBFEC3
:109EB0004FF4A271206801F0D6FE4FF4AC71206817
:109EC00001F0D1FE20681149C0F804132068690729
:109ED00040F30730090E002806DA00F00F0000F109
:109EE000E02080F8141D03E000F1E02080F8001469
:109EF0002068012140F3073000F01F029140400923
:109F0000800000F1E020C0F8001170BD1003420095
:109F1000024600201268530713D502F003000128FF
:109F200002D002280CD105E0C2F383100B68801C1C
:109F3000184404E00223086803EB925210440860BE
:109F4000012070470121814003484068014201D04F
:109F50000120704700207047A82C002001460120F6
:109F60008840FEF7D7B8F0B58488A518944200D889
:109F70002246A41AC288D6189A4200D81346D21A8A
:109F80004B880788BB420CD34088834209D8888815
:109F9000A04206D3A84204D8C888904201D3B04258
:109FA00001D90020F0BD0120F0BD01218140C8038E
:109FB00000D00120704700000A4810B5807860B1D9
:109FC000002401E0022C06D02046FEF7EDFE641CC2
:109FD000042CF7D310BD0324F6E7BDE81040FEF7CC
:109FE00003BF00005C2C002003480179C90702D0A0
:109FF0000078FFF735B870475C2C0020F72101800E
:10A0000017214180002101714171FB2181711B21C8
:10A01000C17170472DE9FF410026234800F023FB62
:10A020002148001F074600F01EFB204C606800908E
:10A03000A56800E000986946284004EB80000C30D9
:10A04000FFF766FF0028F5D101AA009901EA050390
:10A0500004EB8303491CDB6842F82030401C00916C
:10A060000228F2D3019800F0030001280BD0022847
:10A0700010D10198032101EB90500099BDF80A60BE
:10A0800001EB900005E00198BDF80A60C0F3831071
:10A0900008440090384600F0E3FA08B10098606088
:10A0A00004B03046BDE8F081D0400020B83C00202C
:10A0B0009048ACB00127076018228F4904A8FCF72C
:10A0C000E7F98E4800908E493802CDE901010390EE
:10A0D00005238C4A694604A8FDF7DAFE08B1FDF7AE
:10A0E0002BFE4FF48041002001F0E0F908B1FDF7AC
:10A0F00023FE01F049F8FDF765FE08B1FDF71CFEEF
:10A100007D484FF4A072012300212438009702F00B
:10A11000C5F97D490020FEF759FF08B1FDF70CFE97
:10A1200069460020FEF784FE08B1FDF705FEFFF743
:10A13000DDFD172000F023FF01F0CEFA08B1FDF796
:10A14000FBFD01F081FC08B1FDF7F6FD0024694636
:10A150000120009401F018FB08B1FDF7EDFD684601
:10A1600001F0AAFB08B1FDF7E7FDFFF717FDFFF7C8
:10A170008BFD6648019001A9654800F0CEFB08B14F
:10A18000FDF7DAFD6348009069466348FEF712FD6B
:10A1900008B1FDF7D1FDAC216846FCF792F9022029
:10A1A0008DF800008DF8024006208DF803005A4813
:10A1B000ADF84C701E3814904020CDE922048DF883
:10A1C0007C7056482990524869460C30FEF7C6F814
:10A1D00008B1FDF7B1FD4E4801210C30FEF7BBF888
:10A1E0001C216846FCF76DF94FF4A030CDE9004022
:10A1F0004FF4F02002904A480590032549488DF815
:10A200000C500690ADF80E408DF810406846FEF7F1
:10A210008BFA08B1FDF790FD42DF2BA844DF2B98A5
:10A220000028FAD0FCF71EFC4FF47A7000F0F2FB25
:10A23000FCF756FBFCF738FB02463B493B48081A43
:10A24000C00805EB00453AA1284601F0C7F8FCF725
:10A2500095FD0120FCF786FD6820FCF72DFEFCF73C
:10A2600059FEFCF749FE0246284637A101F0B6F830
:10A27000FCF78EFE002828463AD038A101F0AAF853
:10A2800028463EA101F0A6F8214803210C30FEF734
:10A2900033F908B1FDF750FD102000F070FE0F20DB
:10A2A00000F06DFE012003F00BFB1B4E383E3762C1
:10A2B00003F082F803F0BAF803F0AAF828463AA1AE
:10A2C00001F088F830780028FCD0B0780028F9D068
:10A2D000B470FCF729FC104A203A911E881EFCF746
:10A2E000F1FD707803F044F97078401C7070E9E774
:10A2F00036A1C3E7780500404CE70200882E002015
:10A30000882F0020C1E00200258F020001B7020063
:10A310009C30002021CC0200202C002089CD02009E
:10A32000ADCD02005B96020094F302000CF3020034
:10A3300041445320446576696365204944203A20AE
:10A34000307825780D0A00004D50553630353020D4
:10A350004944203A20307825780D0A004D50553672
:10A3600030353020636F6E6E656374696F6E207375
:10A3700075636365737366756C0D0A004465627579
:10A3800067206C6F6767696E6720666F7220554142
:10A390005254206F76657220525454207374617247
:10A3A0007465642E0000000053414144432048413D
:10A3B0004C2073696D706C65206578616D706C659B
:10A3C00020737461727465642E0000004D50553620
:10A3D00030353020636F6E6E656374696F6E206612
:10A3E00061696C65640D0A0070B5144682880E467A
:10A3F00005462088111D0144921C994201D8FE2A6D
:10A4000001D90C2070BD521C32542088FF21401C01
:10A4100080B2208031542088401C80B22080811975
:10A42000288804F02AF82188084480B22080AA886D
:10A4300042B1A96841B13044FCF72AF82088A988C4
:10A4400008442080002070BD072070BD2DE9F04732
:10A45000C5881E1DB6FBF5F78946B6FBF5F1044627
:10A4600005FB176C407916686843DDF820A0F718E3
:10A47000001F874200D9C61A166001E02468491EF1
:10A480000029FBD1A5EB0C078846B74216D818E087
:10A4900004EB0C00001D09EB0803BAF1000F3A466B
:10A4A00002D00146184600E01946FBF7F1FF246888
:10A4B000F61B4FF0000CB844B54201D9374600E016
:10A4C0002F46002EE4D1BDE8F087000030B50246EB
:10A4D00051B101F009F80021074C08E034F82130AF
:10A4E0001568AB4202D11160002030BD491C814289
:10A4F000F4D3052030BD000000000000F8B50F4681
:10A50000017814460546012901D1687830B12088C8
:10A51000821C9A4232D8012902D006E00720F8BDF9
:10A5200069780144891C994228D8181A801E86B27D
:10A53000ADF800602188B81C084469467DDF00281A
:10A54000EDD12978022904D06878BDF80020904226
:10A5500005D3BDF80000B04201D809200AE0082068
:10A56000012905D16978B14202D8ADF8001001E0A7
:10A57000ADF80060BDF80010FE2901D90C20F8BD2F
:10A580002288491CB9542188491C89B221807854F9
:10A590002088401C2080BDF8001008442080002046
:10A5A000F8BD10B531B1B2FBF3F403FB14241CB1B8
:10A5B000092010BD0E2010BD0160002141608160A6
:10A5C0008281C381084610BD70B50C460546FBF775
:10A5D00023FE002802D021882868084470BD10B5E9
:10A5E0000A8849888A4203D1FBF758FE012010BD32
:10A5F000002010BD70B50C460546FBF732FE002862
:10A6000002D061882868084470BD10B50A8849885E
:10A610008A4203D1FBF71CFE012010BD002010BDB3
:10A6200001F01F0301229A40D243490900EB810047
:10A63000114600F021B84A0950F8220001F01F022B
:10A6400001219140084000D00120704701F01F0314
:10A6500001229A40490900EB8100114600F01CB824
:10A66000002100F00FB8012100F016B808B56A46C5
:10A67000FBF769FE009808BD08B56A46FBF749FE7E
:10A68000009808BD08B56A46FBF743FE08BD08B54B
:10A690006A46FBF725FE08BD08B56A46FBF72CFEA7
:10A6A000009808BD08B56A46FBF75AFE009808BD39
:10A6B00038B5044600258DF800506846FDF764FC67
:10A6C00021686268086890420ED9401E08600178CF
:10A6D000238AE26801FB0325227A2168101AC0B29E
:10A6E0000A79824200D208719DF80000FDF770FCE3
:10A6F000284638BD38B5054600208DF800000C46C8
:10A700006846FDF741FCE868298A201AB0FBF1F1A0
:10A710002A681068431C136001709DF80000FDF763
:10A7200057FC38BD10B530B1017A42680368891A08
:10A73000C9B21A6006E00E2010BD03681A68541CE6
:10A740001C601170491EC9B2F7D200680021017166
:10A75000084610BDC20800F007030120895C98403C
:10A760000840704710B5C20800F00703885C012458
:10A770009C402043885410BD28B1A1F11702E12A62
:10A7800003D3072070470E207047018000207047D8
:10A7900010B560B10161F72120F8021B20F8021BFF
:10A7A000FB2100F8021BFFF729FC002010BD0E2042
:10A7B00010BD0000F0B5858893B00C46002D39D14E
:10A7C000018800263F4F24293BD006DC102909D000
:10A7D00011290CD0232958D14FE03A290BD0552903
:10A7E00053D129E00146204602F024FB4DE0A01D94
:10A7F000FFF704FC49E02246408934F8061F8142F5
:10A8000000D808466080172800D2172060801069A1
:10A8100070B1607960B1D7E90001CDE90301ADF80D
:10A820000E506088ADF81000136903A910469847D0
:10A830006671267113B0F0BD0146204602F04EFB52
:10A8400023E0011D2C2206A8FBF722FEBDF818000C
:10A85000BDF81C2004EBC0014A732269AAB1D7E9F4
:10A860000423CDE90423ADF81200487B8DF81400D1
:10A870002269204604A9904707E0017A207B88429C
:10A8800000D201462846FEF70FFFA07A0028D1D05B
:10A89000E1882846A5DF012580B11128CAD001F042
:10A8A000B1F902460848094913B0401AC00805EB3F
:10A8B0000040BDE8F04006A100F090BDA672E57230
:10A8C000B8E70000DCE702000CF302000CF3020022
:10A8D00073645F626C655F67617474635F657863FE
:10A8E00068616E67655F6D74755F726571756573BC
:10A8F0007428292072657475726E65642025732E24
:10A900000000000020B10278DE2A03D00820704742
:10A910000E20704741800020704760B159B1027825
:10A92000DE2A0AD009684160DE2101704FF6FF710E
:10A930004180002070470E207047082070477FB587
:10A94000054600294DD0002D4BD008780C46DE2856
:10A9500047D1A8886188884202D1204603F02CFEA6
:10A960002888012825D002283BD011283AD0512828
:10A9700037D135F8040F6188884232D1A978A81CF4
:10A9800002292ED1017A042903D0062901D00529F4
:10A9900027D10021009102228DF8002001914FF46F
:10A9A000C07202910391ADF80420007A05280FD0FF
:10A9B00010E0297A2046012913D1A98842889142C2
:10A9C0000FD10121017204B0BDE8704003F0F4BD65
:10A9D000ADF8041028886946B0DF002801D061680E
:10A9E00088477FBDA88861888842FAD14FF6FF70FA
:10A9F00060807FBD00F180400068002800D0012009
:10AA0000704708B500F180400021016000680090A7
:10AA100008BD00002DE9F041040007D0044E4FF4BA
:10AA20007A47751C3846A847641EFAD1BDE8F08104
:10AA300020E7020070B5040006D04FF47A7528466E
:10AA400001F04CF9641EFAD170BD000070B50B4CDA
:10AA5000207808B185250FE00020A06060602061AB
:10AA6000E060074801F01CF9054601F039F808B923
:10AA700001F000F901202070284670BDD438002074
:10AA80006195020038B500258DF800506846FDF745
:10AA90007BFA074CE068401EE060E06810B901F006
:10AAA0000FF9A5709DF80000FDF792FA38BD00007F
:10AAB000D43800200448017809B18520704701216D
:10AAC0000170002070470000B02C002030B41C46FC
:10AAD0000378064D45F823200C3545F8234002B194
:10AAE000034A30BC001D01F0ADBB000094390020CA
:10AAF00009D802001FB5001D069C8DE81E0000222B
:10AB0000694601F06DFC04B010BD00002DE9F04174
:10AB1000064604780B4815460F4640F824200830B6
:10AB200040F82430487B10B1084603F007F80DB117
:10AB3000054A00E0002223463946301DBDE8F041B9
:10AB400001F04CBD982C0020E9DB0200001D01F053
:10AB5000B5BD38B5001D049C009401F0C7FD38BD9B
:10AB6000F0B505460478154889B0164640F824200B
:10AB7000124A0869121DA2F1080742F82400487F12
:10AB8000385520226846FBF783FC04942878385C0B
:10AB900048B10EB10A4A00E000226946281D01F0C2
:10ABA00023FF09B0F0BD0EB1064A00E0002269465D
:10ABB00005F10C0001F0CEFDF3E70000802C002031
:10ABC00039E30200DDE1020030B40378054CE35CB8
:10ABD0001BB130BC001D01F03DBF30BC0C3001F09A
:10ABE00021BE00007C2C002030B40378054CE35CCF
:10ABF0001BB130BC001D01F0AFBF30BC0C3001F008
:10AC000087BE00007C2C00200FB408B503990029F2
:10AC100004D004AA00926A4600F00FF801B05DF873
:10AC200014FB10B582680446002A05D0D4E9040359
:10AC3000216898470020A06010BD2DE9FC4791468F
:10AC40000C00804676D014F8011B39B125290ED0AE
:10AC50004046FEF735FB20780028F4D198F80C0028
:10AC6000002867D04046BDE8FC47FFF7DABF002068
:10AC7000012221782B291BD02D2902D0302908D17F
:10AC800002E040F0010001E040F00200641C002AF4
:10AC9000EFD100252A290ED02178A1F130020A2A0D
:10ACA00011D205EB850201EB4205641C303DF1E752
:10ACB00040F00400EAE7D9F800100B1DC9F8003095
:10ACC0000968641C0D44217800232E290BD114F847
:10ACD000011FA1F130020A2A05D203EB830201EB26
:10ACE0004203303BF3E76C290DD068290BD069296A
:10ACF00021D00BDC252918D0582931D063290ED05A
:10AD0000642915D117E014F8011FECE7702969D008
:10AD1000732932D075291BD0782909D120E0D9F8C0
:10AD20000000011DC9F8001001784046FEF7C8FA7E
:10AD3000641C90E76CE0D9F800100A1DC9F80020E7
:10AD40000968CDE900500A224046FFF74BF8EFE7CB
:10AD5000D9F800100A1DC9F8002009680A2206E087
:10AD6000D9F800100A1DC9F8002009681022CDE9A1
:10AD70000050404603F086FBDAE7D9F800100027C0
:10AD80000A1DC9F800200E68C00705D112E0404630
:10AD9000761C7F1CFEF794FA31780029F7D104E085
:10ADA000202140466D1EFEF78BFABD42C0D9002D12
:10ADB000F6D1BDE74EB13046FBF78EFB074604E007
:10ADC000202140466D1EFEF77BFABD4206D9002DBC
:10ADD000F6D103E04046761CFEF772FA317800297E
:10ADE000F8D1A5E7D9F80000011DC9F800100568E1
:10ADF00030214046FEF764FA78214046FEF760FABB
:10AE000008200021CDE90001034610222946B0E7C1
:10AE1000BDE8FC8770B541EA4201DDE904564FF018
:10AE2000A04441EA830141EA052104EB800041EAA4
:10AE30000641C0F8001770BD70B541EA4201DDE976
:10AE400004564FF0A04441EA830141EA052104EB96
:10AE5000800041EA0641C0F8001770BD70B541EAB4
:10AE60004201DDE904564FF0A04441EA830141EA82
:10AE7000052104EB800041EA0641C0F8001770BDCF
:10AE800070B541EA4201DDE904564FF0A04441EAC1
:10AE9000830141EA052104EB800041EA0641C0F844
:10AEA000001770BD70B541EA4201DDE904564FF06C
:10AEB000A04441EA830141EA052104EB800041EA14
:10AEC0000641C0F8001770BD70B541EA4201DDE9E6
:10AED00004564FF0A04441EA830141EA052104EB06
:10AEE000800041EA0641C0F8001770BD1CB5002281
:10AEF0000B46009211460192FFF7B0FF1CBD1CB536
:10AF000000220B46009211460192FFF7B9FF1CBDCB
:10AF10004FF0A04202EB80000321C0F800177047F9
:10AF20001CB5002100910B46012201911146FFF74B
:10AF300095FF1CBD1CB5002100910B46012201911B
:10AF40001146FFF79DFF1CBD1CB5002100910B466B
:10AF5000012201911146FFF7A5FF1CBD4FF0A04251
:10AF600002EB8000D0F8002722F44032C0F800271E
:10AF7000D0F8002742EA0141C0F8001770474FF0AF
:10AF8000A04201218140C2F80C1570474FF0A04249
:10AF900001218140C2F8081570474FF0A0420121FD
:10AFA0008140C2F8081570474FF0A042012181404E
:10AFB000C2F80815704701224FF0A043824011B13A
:10AFC000C3F808257047C3F80C25704718B5084B1F
:10AFD0006C4601441B68009306E000BF54F8203023
:10AFE000D3F81035401C08C28142F7D818BD0000C4
:10AFF00004E80200034908B5084400210160006824
:10B00000009008BD0060004002494058012800D06F
:10B01000002070470060004030B5154A014600200E
:10B02000D2F8104423460AE0DB681D79854205D139
:10B03000401C0A28F6DB4FF0FF3030BD1B68002BA8
:10B04000F2D1431CF9D0CB681871D2F8103443B157
:10B05000DB68CC681B682360D2F81024D2681160CA
:10B0600030BDC2F81014C96800220A6030BD00006B
:10B07000B83C00207047FCF76DB8704708B5034A2C
:10B0800000924023024A00F005F808BD59D602009C
:10B09000203B0020F0B595B01C4615460E460846EC
:10B0A0001A9F00F0F3FA182109A8FBF70AFA0E9785
:10B0B000CDE909540023082203A9304600F0FBFA29
:10B0C00005980690BDF81000ADF81C00BDF8120000
:10B0D000ADF81E0000208DF821000399082501F02D
:10B0E0000300012802D0022816D02FE0C1F3C200CD
:10B0F000C1F383178C0A8DF82000BA002B460FA9E4
:10B10000304600F0D8FA09A8009006AB3A460FA9DD
:10B11000204600F017FA19E0C1F3C2008C0D8DF83B
:10B120002000082C01D2274600E008272B463A468B
:10B130000FA9304600F0BFFA3D44E41B09AB06AA54
:10B1400039460FA800F05AF9002CEAD1304600F039
:10B15000A3FA15B0F0BD00000A4A012902EBC000B5
:10B1600007D0022907D0032907D0042907D00020DF
:10B17000704702207047042070470079704740797B
:10B18000704700000CF3020010B5FFF774FF0421B4
:10B190000348FFF741FF02490120C968487110BD0B
:10B1A000FCF202002DE9F04F8DB0FEF7A1F818B1C6
:10B1B00000200DB0BDE8F08F7D4C4FF0000BC4F8BF
:10B1C00018B4BFF34F8F60680290A568D846284036
:10B1D00004EB80000CE000BFD4F8180470B92168BB
:10B1E0000298814201D86160E2E7284004EB8000C8
:10B1F0000C3002A9FEF78CFE0028EDD1002009AA30
:10B20000029901EA050304EB8303491CDB6842F859
:10B210002030401C02910228F2D3099800F003016B
:10B22000022902D001294DD0A8E0810D5022894683
:10B23000B2EB905F00D850210F4667F39F50099002
:10B2400008315C4800F0D9F9060077D000F01EFA0A
:10B250004346082209A9304600F035FA029908F160
:10B26000080A2940681A8000001D874223D9504DE2
:10B270000C3530B1C2B204EB8101381A90460C3162
:10B2800004E02946FAB2002590462846C7B2534644
:10B29000304600F018FA0AEB08032DB13A46294669
:10B2A0004FEA060000F00FFA029909F1030001EBE2
:10B2B0009000029039E004EB810153463A46304653
:10B2C0000C31EFE7C0F38311062900D3062161F3A7
:10B2D00089100990C0F38310801C8100354800F06C
:10B2E0008CF906004AD000F0D1F94346082209A99A
:10B2F000304600F0E8F908F1080800270FE002984E
:10B30000434600EA0501401C04EB8101029004223F
:10B3100030460C3100F0D7F908F104087F1C099879
:10B32000C0F38310B842EAD846B1D4F81054D4F828
:10B33000180478B1304600F0AFF934E01EE0E86858
:10B340004079012804D12A6828463146126890477E
:10B35000E8680568002DF2D1304600F09DF98DF8BF
:10B3600000B06846FCF710FED4F8180408B902983B
:10B3700060609DF80000FCF72BFE14E0D4F8104448
:10B3800005E02168204689688847E0680468002C49
:10B39000F7D109480949401AC008022101EB0040D1
:10B3A00007A100F017F8FDF7A3FF80F0010000E708
:10B3B000B83C0020B4F3020094F302000CF3020046
:10B3C0004261636B656E647320666C757368656457
:10B3D0000000000000231A4602F098BA08B50123C5
:10B3E00000926A4602F092FA08BD1CB5CDE900232E
:10B3F00002236A4602F08AFA1CBD00002DE9F047DC
:10B400000E4680461C469246082940D894F80C9077
:10B41000002020731946104601F038FE0025B54281
:10B4200006D218F805201BA12046FFF7EDFB03E02C
:10B430001AA12046FFF7E8FB6D1C082DEFD318A1D9
:10B440002046FFF7E1FB0025B54212D218F805703F
:10B450007E2F08D8FBF718F80068C05D10F03E0F8B
:10B4600001D03A4600E02E220EA12046FFF7CCFB89
:10B4700003E00DA12046FFF7C7FB6D1C082DE3D3A9
:10B4800001222146504601F0E3FD84F80C90BDE80E
:10B49000F0870000202530327800000020202000B6
:10B4A0007C00000025630000200000000B4810B560
:10B4B000FF218160002101604160C0F81814C0F8CC
:10B4C000141480F82014064800F0E4F8002803D192
:10B4D000044800F017F9002010BD0000B83C00201F
:10B4E000B4F3020018EA020002480349401AC008F7
:10B4F00070470000B4F302000CF3020013B5684675
:10B50000FEF7E4FF08B100201CBD0248009950F886
:10B5100031001CBD0CF3020070B509480125D0F8BC
:10B52000104480F8205407E0E06845712168204607
:10B5300049688847E0680468002CF5D170BD0000B8
:10B54000B83C00202DE9FF4781460C9D00200C46A9
:10B550002F7B2873984616462946184601F096FD1B
:10B56000072E42D2DFE806F004090F161F2A360024
:10B5700049462846FFF748FB37E0494628462268F7
:10B58000FFF742FB31E0D4E9002349462846FFF7A4
:10B590003BFB2AE0A0680090D4E9002349462846F6
:10B5A000FFF732FB21E0D4E90201CDE90001D4E943
:10B5B000002349462846FFF727FB16E004F1080060
:10B5C00007C88DE80700D4E9002349462846FFF75D
:10B5D0001BFB0AE004F108000FC88DE80F00D4E956
:10B5E000002349462846FFF70FFB00222946404624
:10B5F00001F02EFD2F73BDE8FF872DE9F041058A8C
:10B6000080462D1F4819C01CB0FBF5F0C6B240465D
:10B61000FFF74EF8041E19D0002020710120607140
:10B62000E58000272546761EC4F800800BE04046E2
:10B63000FFF73EF860B16179491C617128600546E9
:10B640007F1CC0F80080B742F1D32046BDE8F081EE
:10B65000204600F002F80020F8E72DE9F041457996
:10B6600001466B1E002201E00968521C9A42FBD37E
:10B670000F680146002605E038460C68FFF73AF8E7
:10B680002146761CAE42F7D3BDE8F0810121001DB2
:10B69000FEF7ECBFFFF746B810B504460121001DC8
:10B6A000FFF700F810F0FF0F04D12046BDE810406E
:10B6B000FFF7D3BF10BD1CB501920122009201AA71
:10B6C000FEF7C4FE1CBD1CB501920022009201AA27
:10B6D000FEF7BCFE1CBD0000064910B500204870F6
:10B6E000091D0860BFF35F8F0349044800F01CFA8E
:10B6F000002010BD1C2D0020B0E80200143B0020EB
:10B70000FCF71ABB8268002191608268116182682F
:10B7100051618268D16082685160806801607047C1
:10B7200008B5002242504058009008BD024A1060FF
:10B73000101D0160704700002C7600400301034893
:10B740001844C0F81425C0F8101570470070004068
:10B7500002494058002800D0012070470070004086
:10B76000034908B50844002202600068009008BD43
:10B770000070004020B10349096801600020704753
:10B780000E2070479CEA02002DE9FE4307460E4654
:10B790000846FFF7EFFF00287CD1002400940194B5
:10B7A00028208DF800704FF00108ADF804000294D5
:10B7B0008DF8028069462020326869DF3649374AB1
:10B7C000891AC908012202EB014530B100F01AFACA
:10B7D000024628463249FFF701FE00948DF80180A9
:10B7E0008DF80240019402948DF803406946402090
:10B7F000326869DF30B100F005FA0246284629496F
:10B80000FFF7ECFD00948DF80070F720ADF8020012
:10B810000194029469462320326869DF30B100F058
:10B82000F1F9024628462049FFF7D8FD009401941B
:10B8300002948DF8008069460120326869DF30B1DA
:10B8400000F0E0F9024628461849FFF7C7FD4FF41B
:10B85000B0600090019402946946A120326869DFCB
:10B8600030B100F0CFF9024628461149FFF7B6FD86
:10B870000094019402948DF800406946A02032683B
:10B8800069DF30B100F0BEF9024628460949FFF7EA
:10B89000A5FD0020BDE8FE83A4F302000CF3020026
:10B8A0003CF1020084F10200D0F102009CF00200A1
:10B8B000E8F0020048F002002DE9F0410546076873
:10B8C00060DF804619491A482A68081AC608BA4231
:10B8D00019D9022000EB064416A12046FFF77AFD95
:10B8E00020463A461FA12B68FFF77FFD4FF080509E
:10B8F000D0F80C012968800200F10050421A20465D
:10B9000025A1FFF76BFDB8F100004FF001040AD04C
:10B9100000F078F9024604EB06402AA1FFF75EFD2D
:10B920004046BDE8F0812F480470F9E7A4F3020017
:10B930000CF30200496E73756666696369656E741F
:10B940002052414D20616C6C6F63617465642066A8
:10B950006F722074686520536F66744465766963FE
:10B96000652E00004368616E67652074686520522B
:10B97000414D207374617274206C6F636174696FE0
:10B980006E2066726F6D203078257820746F2030BD
:10B990007825782E000000004D6178696D756D2066
:10B9A00052414D2073697A6520666F722061707014
:10B9B0006C69636174696F6E2069732030782578D3
:10B9C0002E00000073645F626C655F656E61626C7F
:10B9D0006528292072657475726E65642025732E42
:10B9E00000000000872D002030B51548ADF5017D21
:10B9F0000078002821D04FF4FA7500BFADF800524E
:10BA000080A9684661DF38B1052816D00DF5017DA3
:10BA1000BDE83040FCF790B96C460A497DA800F0BB
:10BA200083F806E0D0E90021204690477DA800F089
:10BA300092F87F980028E1D0F4E70DF5017D30BD44
:10BA4000872D0020A0EA02007CB5194C207808B1AF
:10BA500008207CBD0120A070002001F05BFD1128B2
:10BA600019D0002001F06EFD1248002600680190F8
:10BA70008DF800606846FCF787FA0F4901A810DFCF
:10BA800005000AD0002020709DF80000FCF7A0FA05
:10BA90002DB128467CBD00207CBD0120F3E7A670B7
:10BAA000667001F07DFE012001F04CFDF3E700001F
:10BAB000842D002034EA0200B57C02000EB507494F
:10BAC000684600F031F805E0D0E900108847684684
:10BAD00000F041F802980028F6D10EBD50EA0200AD
